:020000040000FA
:10000000D0110020150200002F0200000905000099
:1000100000000000000000000000000000000000E0
:10002000000000000000000000000000A505000026
:1000300000000000000000009B010000C50500005A
:10004000650500006D0500007505000081050000D4
:10005000B5040000510C0000E90C0000F50C000094
:100060003D05000045050000950500009D050000C8
:100070001905000021050000390C0000410C0000AA
:10008000490C000031050000590C0000610C000013
:10009000690C0000550500008B0D00008D05000067
:1000A000410400005D050000770D00007F0D000099
:1000B0004D05000029050000BD040000AD0400004E
:1000C00000F002F800F03EF80CA030C80838241800
:1000D0002D18A246671EAB4654465D46AC4201D180
:1000E00000F030F87E460F3E0FCCB6460126334274
:1000F00000D0FB1AA246AB4633431847E01B000072
:10010000001C0000103A02D378C878C1FAD8520710
:1001100001D330C830C101D504680C6070470000BD
:100120000023002400250026103A01D378C1FBD813
:10013000520700D330C100D50B6070471FB51FBDFB
:1001400010B510BD00F042F91146FFF7F7FF00F0BF
:1001500070F900F05AF903B4FFF7F2FF03BC00F0A6
:1001600061F90000084B19680868203080F309889D
:10017000022080F31488BFF36F8F3FBCAE4608BCEB
:1001800004BC62B61847000008000020EFF310809E
:1001900072B6704780F310887047EFF309800E4BFA
:1001A0001A6820381060F0C044464D4656465F46F7
:1001B000F0C008B572B601F0D3FB62B60CBC116892
:1001C00008681030F0C8A046A946B246BB4680F386
:1001D00009882038F0C818470800002070B5054687
:1001E0000C46164602E00FCC0FC5103E102EFAD278
:1001F000082E02D303CC03C5083E042E07D301CC3E
:1002000001C5361F03E021782970641C6D1C761E21
:10021000F9D270BD0C480D4A002100A1814200D9DD
:1002200002440B4802600B4880470B480047FEE73A
:10023000FEE7FEE7FEE7FEE7FEE7000007480849A5
:10024000084A094B70470000000000200000000031
:1002500008ED00E0FD0B0000C1000000D00D002003
:10026000D0110020D00F0020D00F00200022030961
:100270008B422CD3030A8B4211D300239C464EE0C1
:1002800003460B433CD4002243088B4231D303097D
:100290008B421CD3030A8B4201D394463FE0C3092F
:1002A0008B4201D3CB01C01A524183098B4201D347
:1002B0008B01C01A524143098B4201D34B01C01A32
:1002C000524103098B4201D30B01C01A5241C308AA
:1002D0008B4201D3CB00C01A524183088B4201D319
:1002E0008B00C01A524143088B4201D34B00C01A05
:1002F0005241411A00D201465241104670475DE01A
:10030000CA0F00D04942031000D34042534000229C
:100310009C4603098B422DD3030A8B4212D3FC2245
:10032000890112BA030A8B420CD3890192118B42C4
:1003300008D3890192118B4204D389013AD09211DA
:1003400000E08909C3098B4201D3CB01C01A524195
:1003500083098B4201D38B01C01A524143098B425E
:1003600001D34B01C01A524103098B4201D30B0147
:10037000C01A5241C3088B4201D3CB00C01A52416C
:1003800083088B4201D38B00C01A5241D9D2430853
:100390008B4201D34B00C01A5241411A00D2014690
:1003A000634652415B10104601D34042002B00D5FA
:1003B0004942704763465B1000D3404201B50020BC
:1003C000C046C04602BD704770477047754600F092
:1003D00025F8AE46050069465346C008C00085466C
:1003E00018B020B5FFF72AFF60BC00274908B646C1
:1003F0000026C0C5C0C5C0C5C0C5C0C5C0C5C0C534
:10040000C0C5403D49008D46704710B50446C04602
:10041000C0462046FFF79FFE10BD00000048704711
:100420006C0D002001491820ABBEFEE7260002003B
:10043000704710B500F0E2FB00F022FD002010BD77
:1004400010B500F01DF8C046C04610BD0249496B0A
:100450008143014A516370478024004001460448AB
:10046000006B0840002801D0012070470020FCE705
:10047000802400400148006A70470000802400404A
:1004800010B50120FFF7EAFF012805D1FFF7DEFFD5
:10049000FFF7F0FF0149088010BD00007800002040
:1004A0000120014908607047C024004010B5C046D3
:1004B000C04610BD10B5C046C04610BD10B5C04600
:1004C000C046C046C04610BD10B501460020084ACF
:1004D000084BDA62084ADA621A46126A0C239A4317
:1004E0008B000C2423401A43024B1A6210BD0000FB
:1004F0005A5A000000000240A5A5000002461068FC
:10050000C840C007C00F704708B50020009000BF6A
:1005100000980028FCD008BD10B5C046C04610BDEC
:1005200010B5C046C04610BD10B5C046C04610BD8F
:1005300010B5C046C046C046C04610BD10B5C04646
:10054000C04610BD10B5C046C04610BD10B5C0466F
:10055000C04610BD10B5C046C04610BD10B5C0465F
:10056000C04610BD10B5C046C04610BD10B5C0464F
:10057000C04610BD10B5C046C046C046C04610BDFE
:1005800010B5C046C046C046C04610BD10B5C046F6
:10059000C04610BD10B5C046C04610BD10B5C0461F
:1005A000C04610BD704710B5012A05D1036801246B
:1005B0008C402343036004E0036801248C40A34380
:1005C000036010BD10B5FFF7E1FD044601F064FAC9
:1005D000002803D001200007024948602046FFF7A9
:1005E000D9FD10BD00ED00E070B50446002520786F
:1005F000030000F0DBFB0504050C10181C0018E0DC
:10060000032000F0CBFA032000F092FA11E003205F
:1006100000F068FA0DE00321084600F0CDFA03204F
:1006200000F096FA05E0072000F00EFA01E004253C
:1006300000BF00BF2078012100F00CF8207800F006
:1006400097FA607800F04EF9A07800F05FF928463C
:1006500070BD000070B505460C46002600F09AFB00
:10066000002C01D0012000E0002004462B0000F007
:100670009DFB05041731456074003A480068400846
:100680004000E107C90F08433649086000BF002C4D
:1006900005D03448C0680005C00F0028F7D05EE0E0
:1006A0003148C068032108432F49C8602D480068BD
:1006B0000221884361000222114008432949086051
:1006C00000BF002C05D0274800694006C00F002855
:1006D000F7D044E02348006804218843A1000422A5
:1006E000114008431F49086000BF002C05D01D4879
:1006F0004069C004C00F0028F7D030E01B48C06834
:100700000321890308431949C86016480068082175
:100710008843E1000822114008431249086000BFE5
:10072000002C05D00F4880694006C00F0028F7D084
:1007300015E00C4800681021884321011022114067
:1007400008430849086000BF002C05D00548C06B6D
:100750004003C00F0028F7D001E0042600BF00BF0F
:10076000304670BD00200040401D0240800D024018
:1007700030B589B000241422564904A8FFF72EFD95
:1007800054481430006803900020009001900290BB
:1007900051480188684601814F4841886846C180B8
:1007A0004D488188684681804B48C18868464180B1
:1007B00049482030018868460180484800680006A2
:1007C000450F2B0000F0F2FA05042E303E41780070
:1007D0004248C0684005400D69460989884201D1F8
:1007E000089C1EE03D48C0684005400D6946C98828
:1007F000884201D1079C14E03848C0684005400D8C
:1008000069468988884201D1069C0AE03348C0685D
:100810004005400D69464988884201D1059C00E0A9
:10082000049C4BE02E4C49E0684600882B494969FE
:100830008905890D884202D16846C48901E068466D
:1008400084893BE00124E40338E02448C06B80073E
:10085000800F032829D1684600892049C9684905C5
:10086000490D884201D1089C20E06846C0881B4998
:10087000C9684905490D884201D1079C16E06846C0
:1008800080881649C9684905490D884201D1069CEE
:100890000CE0684640881149C9684905490D8842FD
:1008A00001D1059C02E0049C00E00D4C0B48C06B9C
:1008B000C005000F444301E0002400BF00BF07480B
:1008C00000684005410F2046C8400446204609B054
:1008D00030BD0000C41C0000000C100000200040CF
:1008E0000048E80110B5044600F054FA06480068D4
:1008F00007210902884321020722120211400843FE
:1009000001490860002010BD0020004010B50446D9
:1009100000F040FA064800680321C9028843E1025A
:100920000322D2021140084301490860002010BD93
:10093000002000401EB501460022002000900190DA
:1009400002903D480388684603813B4843886846D7
:10095000C38039488388684683803748C38868469F
:100960004380887803282DD168460089334BDB68A3
:100970005B055B0D984202D1C878022820DC6846EE
:10098000C0882E4BDB685B055B0D984202D1C878AE
:10099000022815DC68468088284BDB685B055B0D08
:1009A000984202D1C87803280ADC68464088234B65
:1009B000DB685B055B0D98420CD1C878062809DD21
:1009C00006201EBDC8781E4B58431E4B984201D9C5
:1009D0000620F6E71948C06B03235B0398430B78A6
:1009E0005B030324640323401843144BD863184665
:1009F000C06B1C2398434B789B001C242340184356
:100A00000E4BD8631846C06BFF23E1339843CB7875
:100A10005B01FF24E13423401843084BD863184698
:100A2000C06B800880008B789B079B0F1843034B9B
:100A3000D8631046C5E70000000C100000200040FD
:100A40000048E801006CDC0210B501460020064AAF
:100A5000D26B0723DB039A43CB030724E403234031
:100A60001A43014BDA6310BD0020004070B5044604
:100A70000D4620202040002814D020212046884305
:100A800004462A4621460B48FFF78DFD032C02D170
:100A9000094805700CE00848027803210548FFF773
:100AA00082FD05E02A4621460248001FFFF77BFD34
:100AB000002070BD242000407000002001464A0044
:100AC000064BD21812885005400D054AD268D20A4A
:100AD000D2020243024BDA6000207047000C100083
:100AE0000020004010B501460020064A5269032349
:100AF0009B029A438B020324A40223401A43014B16
:100B00005A6110BD0020004001464A00064BD21831
:100B100012889005800D054A5269920A920202439A
:100B2000024B5A6100207047000C1000002000406A
:100B300010B501460020054A126930239A430B0183
:100B4000302423401A43014B1A6110BD002000409D
:100B500010B501460020054A926930239A430B01E3
:100B6000302423401A43014B9A6110BD00200040FD
:100B700070B504460025264600F00CF906480068CA
:100B8000E02188437101E0221140084302490860D6
:100B900000F02CF8284670BD0020004001460020DF
:100BA000044A1269920892008B079B0F1A43014B6B
:100BB0001A6170470020004030B5024600200A4B01
:100BC0009B690C24A34394000C252C402343064C22
:100BD000A36123469B699B089B008C07A40F2343BA
:100BE000014CA36130BD00000020004010B5FFF7AC
:100BF000BFFD0149086010BD7400002010B50C490C
:100C000049888805800D0B494969890A8902014391
:100C1000084A51610649203909894805400D1146A5
:100C2000C968C90AC9020143D160FFF7DFFF10BDDF
:100C3000200C10000020004010B5C046C04610BD7A
:100C400010B5C046C04610BD10B5C046C04610BD68
:100C500010B500F02DF810BD10B5C046C04610BD4F
:100C600010B5C046C04610BD10B5C046C04610BD48
:100C700007E07D20C00000F0F9FD7D20C00000F0FD
:100C8000F5FDF6E70146002001228A40D243014BE0
:100C90005A6170470058004001460020034B1A6912
:100CA0001346CB40D807C00F7047000000580040E3
:100CB00010B50020FFF7F0FF012811D10948007896
:100CC000002807D1FFF7ECFB06480078401C0549D7
:100CD000087002E00020034908700020FFF7D2FFEF
:100CE00010BD00007A00002010B5C046C046C046C6
:100CF000C04610BD10B500F003F8C046C04610BD98
:100D000010B500210C4800F026F8002808D000217A
:100D1000094800F015F8084800F029F8074908705C
:100D20000121054800F017F8002803D001210248EE
:100D300000F006F810BD0000000100407B0000201C
:100D400070B504460D460022294620461430FFF7B0
:100D50002AFC002070BD70B504460D4600262946C9
:100D600020461030FFF7CAFB0646304670BD0146EC
:100D70000868C0B2704710B5C046C04610BD10B577
:100D8000C046C046C046C04610BD10B5C046C046AD
:100D900010BD00000248034988600348886070471E
:100DA0005A5A000000200040A5A5000030B4744647
:100DB000641E2578641CAB4204D3635D5B00E318BA
:100DC00030BC18471D46F8E710B5002819DB1A4A51
:100DD00003231B02D21883089B00D2588307DC0E22
:100DE000FF23A3409A438B071B0E8407E40EA34006
:100DF0001A43114B032424021B198408A4001A511E
:100E000018E00E4A03071B0F083B9B089B00D258B3
:100E10008307DC0EFF23A3409A438B071B0E840736
:100E2000E40EA3401A43054B0407240F083CA40812
:100E3000A4001A5110BD000000E100E01CED00E02C
:100E4000012101200A4A1268002A01D000200DE089
:100E5000084A1268002A01D0002007E0064A1368F9
:100E6000064A1268521E934200D1022070470000C9
:100E7000300100202C000020580100201800002024
:100E80001CB51120FFF740FE01210220FFF7E2FB15
:100E90000220FFF76DFE01211F20FFF7E7FD022072
:100EA000FFF712FB0420FFF709FE002168460171DD
:100EB00004214171032181710C21C17101A8FFF747
:100EC00039FD042168460170002141708170FFF7EF
:100ED0008BFBFFF74DFC18490860FFF787FE7D216B
:100EE000C90015480068FFF7C1F90446601E1349A0
:100EF000884200D90CE0601E114948610321081F97
:100F0000FFF762FF00200E4988610720086100BFDB
:100F10000020C043002809DB00BF00BFC206D20E7C
:100F200001219140074A116000BF00BF00BF00F0DF
:100F300013F800BFFEE7000004000020FFFFFF00E1
:100F400000E000E000E100E010B500F093FD0128B2
:100F500001D0FFF737FB10BD1CB506480321002365
:100F600080220091019004A1064800F055FD00F098
:100F70009FFC1CBD000000205461736B5F546573BF
:100F800074000000710C0000F8B505460E461748C5
:100F9000076817480068001D00F0DEFA681C00288A
:100FA00008D1002E06D012480168091D114800F032
:100FB00012FB1AE07C190E4800684460BC4207D25C
:100FC0000B480168091D0C48006800F0E9FA0CE0C4
:100FD00007480168091D0948006800F0E1FA08485F
:100FE0000068844201D206480460F8BD1C0000205D
:100FF0000800002058010020100000200C000020F4
:101000003800002010B5044600F0F2FA20480068CD
:10101000401C1F4908601F480068002808D11D486F
:1010200004600846006801280ED100F063F90BE067
:1010300019480068002807D116480068C06AE16AAC
:10104000884201D81348046014480068401C1349C2
:1010500008601349E06A0968884202D91049E06AC9
:1010600008601422E16A51430E4A8818211D00F0DD
:10107000B2FA00F0CBFA08480068002807D005480B
:101080000068C06AE16A884201D200F0E3FB10BD4B
:101090001800002008000020240000203400002058
:1010A000200000207C00002070B525E000F050FCFE
:1010B00014480068002801D1012000E00020054606
:1010C00000F088FD002D17D100F092FA0D48C0689D
:1010D000C468201D00F040FA0B480068401E0A4911
:1010E00008600A480068401E0849086000F08EFA4F
:1010F000204600F00DF800BF044800680028D5D154
:1011000070BD0000440100201800002014000020E1
:1011100010B50446206B00F08DFA204600F08AFAE4
:1011200010BD000000210E4A1268002A00D00121E3
:101130000C4A1268D26A002A01D000200EE00A4A46
:101140001268012A01D9002008E0002901D00020FE
:1011500004E0064A1268064B1B68D01A704700006C
:1011600020000020080000207C0000203800002023
:101170001C00002030B503239B0217484407640F6E
:10118000002C05D0C01DC008C000134C041B1B1B45
:101190000246124C22600024104D6C60D0180838B2
:1011A000C008C0000E4C206000240D4D2D686C60FE
:1011B0000B4D2D682C601146441A4C60084C246875
:1011C0000C60084D4C682C60074D4C682C60012465
:1011D000E407064D2C6030BD6C0100204400002067
:1011E0004C00002054000020500000205800002037
:1011F00000BFFFF759FF13480068012801D900F02C
:1012000029FBFFF78FFF0446022C19D300F0A0FB47
:101210000D4800680D490968884201D3012000E0AB
:101220000020002802D172B600BFFEE7FFF77AFF68
:101230000446022C02D3204600F070FA00F0CAFCEB
:10124000D7E700007C000020380000201C000020B0
:10125000FFB581B00F460A9E0C9C216B0398401E7F
:101260008000081800900098C008C0000090009806
:101270004007400F002801D1012000E00020002895
:1012800002D172B600BFFEE7002508E0795D204676
:1012900034304155785D002800D102E06D1C102DDE
:1012A000F4D300BF002143200155072E00D30626AA
:1012B000E66266640020A064201D00F06EF92046FE
:1012C000183000F06AF924610720801BA061646275
:1012D0000020E064002150200155049A01990098F3
:1012E00000F02AF920600B98002801D00B980460C8
:1012F00005B0F0BD10B5002406E0142161430E4A8C
:10130000881800F03DF9641C072CF6D30B4800F058
:1013100037F90B4800F034F90A4800F031F90A486F
:1013200000F02EF9094800F02BF90448084908603C
:1013300003480849086010BD7C0000200801002017
:101340001C01002030010020440100205801002031
:101350000C0000201000002010B50146164800E0E7
:10136000006803688B42FBD3024643689B188B429C
:1013700004D143684C681B19436001460A464B6818
:101380009B180468A34211D10C4C03682468A34243
:1013900008D04B68046864681B194B6003681B68BD
:1013A0000B6005E0054B1B680B6001E003680B60F8
:1013B000884200D0016010BD440000204C00002095
:1013C0000B4909680968002901D1012100E00021C9
:1013D000002904D00021C943064A116006E00449EF
:1013E0000968C968C868034A41681160704700000D
:1013F0000C0000203800002007480068401C00282E
:1014000001D1012000E00020002802D172B600BF07
:10141000FEE772B600BFFEE760000020F8B50446A4
:101420000020009000F094FA3E480068002801D1A6
:10143000FFF7A0FE3C4800682040002861D1002C46
:1014400015D008346007400F002810D06007400F07
:101450000821081A04196007400F002801D1012053
:1014600000E00020002802D172B600BFFEE7002C89
:1014700047D02E480068844243D82D4E3046056838
:1014800001E02E462D686868A04202D22868002834
:10149000F7D124480068854233D030680830009086
:1014A000286830606868001B102813D92F19780746
:1014B000400F002801D1012000E00020002802D1C7
:1014C00072B600BFFEE76868001B78606C60384643
:1014D000FFF742FF154968680968081A1349086050
:1014E0000846006813490968884203D20F4800681B
:1014F000104908600C496868096808436860002062
:10150000286000F067FB00984007400F002801D1D9
:10151000012000E00020002802D172B600BFFEE7E3
:101520000098F8BD4C00002058000020500000201A
:101530004400002054000020001F01231B0603600C
:10154000001F0160001F034B036014380260203845
:1015500070470000F913000001460A694B6888686B
:1015600098608B68486858605068884201D18868E4
:101570005060002008611068401E106010687047BD
:101580000146083141600021C943816001460831AC
:10159000C160016100210160704700210161704755
:1015A00010B502460B685C1C002C01D1106907E0E5
:1015B0001046083000E04068446824689C42FAD92C
:1015C00044684C604C68A160886041600A6114689E
:1015D000641C146010BD42684A6093688B60936815
:1015E00059609160086103685B1C036070470000EC
:1015F00072B605480068401C03490860BFF34F8F6E
:10160000BFF36F8F7047000060000020084800683B
:10161000002802D172B600BFFEE705480068401EF0
:101620000349086008460068002800D162B6704788
:101630006000002070B506463546002E35D0083DC6
:101640002C461A49606809680840002801D001202A
:1016500000E00020002802D172B600BFFEE720683B
:10166000002801D1012000E00020002802D172B63C
:1016700000BFFEE70D49606809680840002814D0E3
:101680002068002811D109496068096888436060B2
:1016900000F05EF90649606809684018044908606E
:1016A0002046FFF759FE00F095FA70BD5800002063
:1016B0005000002010B57D21C90012480068FEF7D7
:1016C000D5FD11490860084601681048FEF7CEFDB7
:1016D0000F4908600B4801680068FEF7C7FD044623
:1016E00021462D20FEF7C2FD0A4908607D21C90070
:1016F00004480068FEF7BAFD401E0749486107200C
:10170000086110BD7400002064000020FFFFFF008E
:10171000680000206C00002000E000E0FEB50446F8
:1017200048480068844201D9464804684648006930
:10173000400840004449086108468169601E434AE8
:10174000126850430D1842480068854202D940484B
:1017500000682D1A72B6FFF773FB00280FD13A48C4
:1017600080693949486108460069012108433649C2
:10177000086136480068401E486162B660E0324841
:10178000456100203049886108460069012108430D
:101790002D4908610094009C002C04D0BFF34F8FAA
:1017A00030BFBFF36F8F284800690190019840084F
:1017B00040002549086162B60121090401980840EA
:1017C000002815D021490968491E1F4A9269AA1AA2
:1017D000881A1F490968884203D31C49096888424E
:1017E00002D91A490968481E17494861661E12E065
:1017F00016480068604314498969471A134801680C
:101800003846FEF733FD0646701C10490968484308
:10181000C01B0D49486100200B498861FFF7E8FEB5
:10182000094800690121084307490861304600F072
:1018300075F806480068401E03494861FFF7E6FE58
:10184000FEBD00006800002000E000E06400002011
:101850006C0000200120000703494860BFF34F8F50
:10186000BFF36F8F7047000000ED00E070B50446D5
:101870000025002C14D00D480068002801D101205B
:1018800000E00020002802D172B600BFFEE700F0A1
:101890005FF800212046FFF777FB00F09BF9054633
:1018A000002D01D1FFF7D6FF70BD000040000020E1
:1018B0001CB5134800210B4680220091019011A114
:1018C000124800F0A9F80446012C0DD172B6002090
:1018D000C0430F49086001200E49086000200E49EE
:1018E000086000F07DF80AE0601C002801D00120AB
:1018F00000E00020002802D172B600BFFEE71CBD48
:101900003C00002049444C4500000000F11100005B
:1019100038000020240000201C0000200A4909682B
:1019200009180A4A1268914201D8012100E00021F9
:10193000002902D172B600BFFEE703490968091801
:10194000014A1160704700001C0000203800002090
:1019500002480068401C01490860704740000020B0
:101960001A480068002803D00120194908602CE0BB
:101970000020174908601748016805E0002902D1D6
:1019800072B600BFFEE7491E14204843124A1058A1
:10199000002801D1012000E000200028EED114220F
:1019A0004A430D4BD01842685268426002460832E2
:1019B0004368934202D14268526842604268D268EA
:1019C000064B1A600348016000BF704740000020CA
:1019D0002C000020200000207C00002008000020B7
:1019E00010B50B48006AFF21090408430849086242
:1019F0000846006AFF210906084305490862FFF707
:101A000059FE002003490860FEF7ACFB002010BD22
:101A100000ED00E060000020FFB585B01746B8007B
:101A2000FFF7FCFC0646002E0BD05420FFF7F6FC17
:101A30000446002C01D0266304E03046FFF7FAFD8F
:101A400000E00024002C10D000220F990E986B4665
:101A500013C303923A46089B06990598FFF7F8FBD3
:101A60002046FFF7CFFA012501E00025ED43284687
:101A700009B0F0BD06490968002901D1012006E03E
:101A800004490968002901D1022000E000207047C4
:101A90002400002040000020F8B5002000904248BB
:101AA0000068002872D141480068451C3F48056025
:101AB000002D1CD13E4800680068002801D101209B
:101AC00000E00020002802D172B600BFFEE73848CF
:101AD0000768384800683649086036480760364865
:101AE0000068401C34490860FFF76AFC00BF3348B7
:101AF000006885423DD300BF2D480068006800287B
:101B000001D1012000E00020002804D00020C043C3
:101B10002A4908602CE026480068C068C4686668E6
:101B2000B54202D22548066022E0201DFFF714FDD1
:101B3000A06A002803D020461830FFF70DFD204989
:101B4000E06A0968884202D91D49E06A08601422E7
:101B5000E16A51431B4A8818211DFFF73CFD1A49D1
:101B6000E06A0968C96A8842C6D301200090C3E7C9
:101B700000BF15480068C06A14214843114908583D
:101B8000012801D90120009005E0FFE70F48006817
:101B9000401C0E4908600E480068002801D0012052
:101BA00000900098F8BD0000400000201C000020BC
:101BB0000C00002010000020300000203800002021
:101BC000200000207C0000200800002028000020C9
:101BD0002C00002070B50024002632480068002840
:101BE00002D172B600BFFEE7FFF702FD2D48006884
:101BF000401E2C4908600846006800284DD12A483C
:101C00000068002849D022E02848C068C4682046FF
:101C10001830FFF7A1FC201DFFF79EFC2449E06A65
:101C20000968884202D92249E06A08601422E16A00
:101C30005143204A8818211DFFF7CDFC1E49E06A58
:101C40000968C96A884202D301201C490860174804
:101C50000068002801D1012000E000200028D3D036
:101C6000002C01D0FFF7ACFB15480568002D0DD006
:101C700000BFFFF711FF002802D001200F490860C4
:101C80006D1E002DF5D100200D4908600B4800683D
:101C9000002802D00126FFF7DDFDFFF7B7FC304634
:101CA00070BD00004000002018000020300100201E
:101CB000200000207C000020080000202C000020D4
:101CC0002800002000093D0000127A000024F400E2
:101CD0004086510100366E0100800096FC1C000019
:101CE000000000207C00000004010000781D0000BE
:101CF0007C000020541100002001000000000000C2
:101D000000000000000000000000000000000000D3
:101D100000000000000000000000000000000000C3
:101D200000000000000000000000000000000000B3
:101D300000000000000000000000000000000000A3
:101D40000000000000000000000000000000000093
:101D5000000000000000000000000000AAAAAAAADB
:101D60000000000000000000000000000000000073
:081D700000093D000000000025
:04000005000000C136
:00000001FF
