:020000040000FA
:10000000C8110020150200002F020000FD060000AC
:1000100000000000000000000000000000000000E0
:10002000000000000000000000000000890B00003C
:1000300000000000000000009B0100005D0C0000BB
:10004000D90A0000E10A0000E90A0000F50A0000F0
:1000500039050000E9120000C9130000D5130000A3
:10006000D5070000DD070000790B0000810B0000C0
:10007000B1070000B9070000D1120000D91200003A
:10008000E1120000C9070000F1120000F91200009F
:1000900001130000C90A00006B140000010B0000EE
:1000A00041040000D10A0000571400005F14000052
:1000B000E5070000C1070000C90500003105000088
:1000C00000F002F800F03EF80CA030C80838241800
:1000D0002D18A246671EAB4654465D46AC4201D180
:1000E00000F030F87E460F3E0FCCB6460126334274
:1000F00000D0FB1AA246AB46334318474821000004
:1001000068210000103A02D378C878C1FAD85207A3
:1001100001D330C830C101D504680C6070470000BD
:100120000023002400250026103A01D378C1FBD813
:10013000520700D330C100D50B6070471FB51FBDFB
:1001400010B510BD00F042F91146FFF7F7FF00F0BF
:1001500070F900F05AF903B4FFF7F2FF03BC00F0A6
:1001600061F90000084B19680868203080F309889D
:10017000022080F31488BFF36F8F3FBCAE4608BCEB
:1001800004BC62B61847000008000020EFF310809E
:1001900072B6704780F310887047EFF309800E4BFA
:1001A0001A6820381060F0C044464D4656465F46F7
:1001B000F0C008B572B601F081FE62B60CBC1168E1
:1001C00008681030F0C8A046A946B246BB4680F386
:1001D00009882038F0C818470800002070B5054687
:1001E0000C46164602E00FCC0FC5103E102EFAD278
:1001F000082E02D303CC03C5083E042E07D301CC3E
:1002000001C5361F03E021782970641C6D1C761E21
:10021000F9D270BD0C480D4A002100A1814200D9DD
:1002200002440B4802600B4880470B480047FEE73A
:10023000FEE7FEE7FEE7FEE7FEE7000007480849A5
:10024000084A094B70470000000000200000000031
:1002500008ED00E095120000C1000000C80D00206C
:10026000C8110020C80F0020C80F00200022030979
:100270008B422CD3030A8B4211D300239C464EE0C1
:1002800003460B433CD4002243088B4231D303097D
:100290008B421CD3030A8B4201D394463FE0C3092F
:1002A0008B4201D3CB01C01A524183098B4201D347
:1002B0008B01C01A524143098B4201D34B01C01A32
:1002C000524103098B4201D30B01C01A5241C308AA
:1002D0008B4201D3CB00C01A524183088B4201D319
:1002E0008B00C01A524143088B4201D34B00C01A05
:1002F0005241411A00D201465241104670475DE01A
:10030000CA0F00D04942031000D34042534000229C
:100310009C4603098B422DD3030A8B4212D3FC2245
:10032000890112BA030A8B420CD3890192118B42C4
:1003300008D3890192118B4204D389013AD09211DA
:1003400000E08909C3098B4201D3CB01C01A524195
:1003500083098B4201D38B01C01A524143098B425E
:1003600001D34B01C01A524103098B4201D30B0147
:10037000C01A5241C3088B4201D3CB00C01A52416C
:1003800083088B4201D38B00C01A5241D9D2430853
:100390008B4201D34B00C01A5241411A00D2014690
:1003A000634652415B10104601D34042002B00D5FA
:1003B0004942704763465B1000D3404201B50020BC
:1003C000C046C04602BD704770477047754600F092
:1003D00025F8AE46050069465346C008C00085466C
:1003E00018B020B5FFF72AFF60BC00274908B646C1
:1003F0000026C0C5C0C5C0C5C0C5C0C5C0C5C0C534
:10040000C0C5403D49008D46704710B50446C04602
:10041000C0462046FFF79FFE10BD00000048704711
:10042000640D002001491820ABBEFEE72600020043
:10043000704710B500F02EFF01F0F0F8002010BD5D
:1004400010B500F01DF8C046C04610BD0249496B0A
:100450008143014A516370478024004001460448AB
:10046000006B0840002801D0012070470020FCE705
:10047000802400400148006A70470000802400404A
:1004800010B50120FFF7EAFF012805D1FFF7DEFFD5
:10049000FFF7F0FF0149088010BD00006C0000204C
:1004A0000120014908607047C024004010B50121B7
:1004B0001C2000F027FE00201949C860184940316F
:1004C000C86017498031C8601549C031C8601549F6
:1004D000C86014494031C860134811490860104988
:1004E000403108600E498031086010480C49C03125
:1004F00008600D480B4908600A4940310860084906
:1005000048620749403148620549803148620449E0
:10051000C03148620349486202494031486210BD17
:10052000000D0240001D0240FFFF0000FFBF000061
:1005300010B5C046C04610BD10B5C046C04610BD7F
:1005400070B504460E4615462046002805DBC20657
:10055000D20E012191401A4A116000BF3146204657
:1005600000F0DEFF012D0ED12046002809DB00BF80
:1005700000BFC206D20E01219140124A116000BF95
:1005800000BF00BF1BE02046002816DBC206D20ECB
:10059000012191400B4A8032116000BF00BF00BFB3
:1005A000BFF34F8F00BF00BF00BF00BF00BF00BF41
:1005B000BFF36F8F00BF00BF00BF00BF00BF70BDA3
:1005C00080E200E000E100E010B5C046C046C04651
:1005D000C04610BD10B501460020084A084BDA623B
:1005E000084ADA621A46126A0C239A438B000C24DA
:1005F00023401A43024B1A6210BD00005A5A0000F1
:1006000000000240A5A5000002461068C840C007CF
:10061000C00F704770B504460D46044960180122AA
:10062000294600F0B2FA002070BD0000140D02400F
:1006300070B504460E461546214960180022314621
:1006400000F0A3FA00201F496118B20088502A78F0
:100650001B49091F6018314600F097FA6A7818495B
:100660000C396018314600F090FAAA78144910311C
:100670006018314600F089FAEA781149143160189F
:10068000314600F082FA2A790D4918316018314656
:1006900000F07BFA6A790A4920316018314600F08F
:1006A00074FA094880680121C9038843A979C903FC
:1006B0000122D2031140084303498860002070BD25
:1006C0000C0D0240000C0240000F024010B5034622
:1006D000024818188C000251002010BD000C024086
:1006E00070B504460D46044960180122294600F001
:1006F0004CFA002070BD0000100D024008B500202B
:10070000009000BF00980028FCD008BD0EB507215E
:1007100001A800F041FF01211C2000F0F3FC0021A2
:1007200068468171417101AA0C2101200003FFF785
:100730007FFF02220C21D002FFF7C8FF01AA0D2182
:1007400001200003FFF774FF02220D21D002FFF702
:10075000BDFF01AA0F2101200003FFF769FF02225C
:100760000F21D002FFF7B2FF01216846417101AAB3
:100770000E2101200003FFF75BFF02220E21D002B1
:10078000FFF7A4FF0121062000F0BCFC402000F090
:10079000E7F9102168460170822141700021C17083
:1007A00081706946014800F0FFF90EBD0008004065
:1007B00010B5C046C04610BD10B5C046C04610BDFD
:1007C00010B5C046C04610BD10B500F00FF8C046C9
:1007D000C04610BD10B5C046C04610BD10B5C046DD
:1007E000C04610BD10B5C046C04610BD10B511487A
:1007F00000F041F801281CD10E4800F01FF800213C
:100800000C4800F024F80C480078002801D10120A1
:1008100000E000200849087008460078002804D04D
:100820000E21C020FFF7F6FE03E00E21C020FFF7E7
:1008300057FF10BD000F00407000002010B50446A7
:10084000002211462046143000F09FF910BD70B50B
:1008500005460C462246002128460C3000F095F94A
:1008600070BD70B505460C4622460A2128460C305C
:1008700000F08BF970BD10B5044600212046103001
:10088000FFF7C2FE10BD30B502467D23DB00D06805
:100890000724E402A0430C78E4020725ED022C4073
:1008A0002043D060D0683024A0434C782401302508
:1008B0002C402043D060D06801246402A0438C788F
:1008C000640201256D022C402043D060D0686C107A
:1008D000A043CC7824026D102C402043D060D06817
:1008E0000824A0430C79E40008252C402043D06064
:1008F000D0680424A0434C79A40004252C40204354
:10090000D060D0680224A0438C79640002252C407A
:100910002043D06005E0D0680006C00F002800D05A
:1009200004E018465C1EA3B20028F4D100BF002BDF
:1009300001D1092030BD5068000C00040C8920430F
:1009400050600020F6E71CB50721684600F024FE41
:1009500000216846817041706A460B210120000326
:10096000FFF766FE0121684641706A460A210120B0
:100970000003FFF75DFEFFF7C9FE1CBD37B50C464F
:10098000154600F091F801226946064800F03EF94C
:100990002A462146034800F019F900F08DF8304648
:1009A0003EBD00000008004001B582B000F07CF8B8
:1009B000012202A9064800F029F9012201A90448F0
:1009C00000F004F900F078F8684600790EBD0000E8
:1009D0000008004070B504460720FFF7E5FF054614
:1009E0002946272000F028F84020284000280AD077
:1009F000202221466120FFF7C1FFFF21E22000F005
:100A00001BF8002070BD0120FCE7000037B50C4644
:100A1000154600F049F801226946064800F0F6F84C
:100A20002A462146034800F0F1F800F045F8304628
:100A30003EBD00000008004013B500F035F801226B
:100A40006946054800F0E2F8012201A9024800F0D9
:100A5000DDF800F031F81CBD000800401CB5002492
:100A600004E0A52069460855601CC4B2052CF8DBDB
:100A7000052269463020FFF7C9FF0522694610208C
:100A8000FFF77CFF002406E06846005DA52800D043
:100A900003E0601CC4B2052CF6DB00BF052C01D0BE
:100AA00001201CBD0020FCE710B50021014800F02A
:100AB000D3F810BD0008004010B50121014800F036
:100AC000CBF810BD0008004010B5C046C04610BDB0
:100AD00010B5C046C04610BD10B5C046C04610BDDA
:100AE00010B5C046C04610BD10B5C046C046C04691
:100AF000C04610BD10B5C046C046C046C04610BD79
:100B000010B5C046C04610BD10B50B210120000332
:100B1000FFF780FD052211492A20FFF777FF012109
:100B20002120FFF789FF01212220FFF785FF2821DF
:100B30002520FFF781FF20213120FFF77DFF0F21C6
:100B40002620FFF779FF0F212020FFF775FF0B21EB
:100B500001200003FFF7C4FD10BD00003D2200008E
:100B60000449896A8143034A91621146896A0143B3
:100B7000916270470020004010B5C046C04610BDCD
:100B800010B5C046C04610BD704710B5012A05D14A
:100B9000036801248C402343036004E003680124BC
:100BA0008C40A343036010BD02460020106001206A
:100BB000506008784B7818438B781843CB781843EB
:100BC00040231843106000209060704710B5034622
:100BD0000C46002100BF10E000BF98684007C00F1E
:100BE0000028FAD00020D86000BF98688007C00FA6
:100BF0000028FAD0D8686054491C9142ECD300BF59
:100C000098680007C00F0028FAD110BD10B5034640
:100C10000C46002100BF10E000BF98684007C00FDD
:100C20000028FAD0605CD86000BF98688007C00FC9
:100C30000028FAD0D8686054491C9142ECD300BF18
:100C400098684007C00F0028FAD000BF98680007D6
:100C5000C00F0028FAD110BD4160704710B5FFF7F2
:100C600095FA044601F0C6F9002803D001200007D8
:100C7000024948602046FFF78DFA10BD00ED00E004
:100C800070B5044600252078030000F0FFFB050442
:100C9000050C10181C0018E0032000F0CBFA03200C
:100CA00000F092FA11E0032000F068FA0DE0032151
:100CB000084600F0CDFA032000F096FA05E0072080
:100CC00000F00EFA01E0042500BF00BF20780121EA
:100CD00000F00CF8207800F097FA607800F04EF9F8
:100CE000A07800F05FF9284670BD000070B5054699
:100CF0000C46002600F0BEFB002C01D0012000E0D5
:100D0000002004462B0000F0C1FB050417314560AC
:100D100074003A48006840084000E107C90F0843E2
:100D20003649086000BF002C05D03448C068000573
:100D3000C00F0028F7D05EE03148C06803210843A7
:100D40002F49C8602D4800680221884361000222B3
:100D5000114008432949086000BF002C05D02748EE
:100D600000694006C00F0028F7D044E0234800681F
:100D700004218843A1000422114008431F49086050
:100D800000BF002C05D01D484069C004C00F0028DA
:100D9000F7D030E01B48C068032189030843194994
:100DA000C8601648006808218843E1000822114005
:100DB00008431249086000BF002C05D00F48806925
:100DC0004006C00F0028F7D015E00C48006810213D
:100DD000884321011022114008430849086000BFE0
:100DE000002C05D00548C06B4003C00F0028F7D089
:100DF00001E0042600BF00BF304670BD0020004067
:100E0000401D0240800D024030B589B000241422FC
:100E1000564904A8FFF7E2F95448143000680390DB
:100E2000002000900190029051480188684601819D
:100E30004F4841886846C1804D4881886846818016
:100E40004B48C1886846418049482030018868463F
:100E50000180484800680006450F2B0000F016FB93
:100E600005042E303E4178004248C0684005400DE0
:100E700069460989884201D1089C1EE03D48C06846
:100E80004005400D6946C988884201D1079C14E09D
:100E90003848C0684005400D69468988884201D1BC
:100EA000069C0AE03348C0684005400D6946498801
:100EB000884201D1059C00E0049C4BE02E4C49E0A7
:100EC000684600882B4949698905890D884202D105
:100ED0006846C48901E0684684893BE00124E40354
:100EE00038E02448C06B8007800F032829D168466A
:100EF00000892049C9684905490D884201D1089CEB
:100F000020E06846C0881B49C9684905490D8842E8
:100F100001D1079C16E0684680881649C9684905D2
:100F2000490D884201D1069C0CE068464088114971
:100F3000C9684905490D884201D1059C02E0049C1D
:100F400000E00D4C0B48C06BC005000F444301E0AE
:100F5000002400BF00BF074800684005410F20463D
:100F6000C8400446204609B030BD000020220000E1
:100F7000000C1000002000400048E80110B50446B5
:100F800000F078FA06480068072109028843210228
:100F9000072212021140084301490860002010BDD9
:100FA0000020004010B5044600F064FA06480068CE
:100FB0000321C9028843E1020322D20211400843FF
:100FC00001490860002010BD002000401EB5014608
:100FD000002200200090019002903D48038868465E
:100FE00003813B4843886846C38039488388684604
:100FF00083803748C38868464380887803282DD18A
:1010000068460089334BDB685B055B0D984202D173
:10101000C878022820DC6846C0882E4BDB685B0558
:101020005B0D984202D1C878022815DC684680889A
:10103000284BDB685B055B0D984202D1C87803281A
:101040000ADC68464088234BDB685B055B0D9842F1
:101050000CD1C878062809DD06201EBDC8781E4BB5
:1010600058431E4B984201D90620F6E71948C06B39
:1010700003235B0398430B785B030324640323403F
:101080001843144BD8631846C06B1C2398434B7805
:101090009B001C24234018430E4BD8631846C06B9A
:1010A000FF23E1339843CB785B01FF24E1342340F5
:1010B0001843084BD8631846C06B800880008B78B3
:1010C0009B079B0F1843034BD8631046C5E70000EE
:1010D000000C1000002000400048E801006CDC0219
:1010E00010B501460020064AD26B0723DB039A4362
:1010F000CB030724E40323401A43014BDA6310BDFA
:101100000020004070B504460D46202020400028F5
:1011100014D020212046884304462A4621460B4805
:10112000FFF733FD032C02D1094805700CE0084895
:10113000027803210548FFF728FD05E02A462146ED
:101140000248001FFFF721FD002070BD2420004051
:101150006400002001464A00064BD2181288500550
:10116000400D054AD268D20AD2020243024BDA602D
:1011700000207047000C10000020004010B5014610
:101180000020064A526903239B029A438B020324E0
:10119000A40223401A43014B5A6110BD00200040B5
:1011A00001464A00064BD21812889005800D054A68
:1011B0005269920A92020243024B5A610020704720
:1011C000000C10000020004010B501460020054A28
:1011D000126930239A430B01302423401A43014BF8
:1011E0001A6110BD0020004010B501460020054ADC
:1011F000926930239A430B01302423401A43014B58
:101200009A6110BD0020004070B5044600252646B6
:1012100000F030F906480068E02188437101E022BF
:10122000114008430249086000F02CF8284670BDC0
:101230000020004001460020044A126992089200F2
:101240008B079B0F1A43014B1A6170470020004027
:1012500030B5024600200A4B9B690C24A34394003E
:101260000C252C402343064CA36123469B699B0815
:101270009B008C07A40F2343014CA36130BD0000E9
:101280000020004010B5FFF7BFFD0149086010BD08
:101290006800002010B50C4949888805800D0B496D
:1012A0004969890A89020143084A5161064920397E
:1012B00009894805400D1146C968C90AC902014398
:1012C000D160FFF7DFFF10BD200C100000200040B0
:1012D00010B5C046C04610BD10B5C046C04610BDD2
:1012E00010B5C046C04610BD10B500F051F810BD95
:1012F00010B5C046C04610BD10B5C046C04610BDB2
:1013000010B5C046C04610BD00F056F9FFF7CEF844
:10131000FFF719FBFFF7A2FB11E000F011F80E2117
:10132000C020FFF7DDF97D20C00000F067FD0E2131
:10133000C020FFF76FF97D20C00000F05FFDECE7F3
:1013400010B588B0002404E0002069460855601CF0
:10135000C4B2202CF8DBFFF7D7FB6846FFF73AFB57
:1013600008B010BD0146002001228A40D243014B43
:101370005A6170470058004001460020034B1A692B
:101380001346CB40D807C00F7047000000580040FC
:1013900010B50020FFF7F0FF012811D109480078AF
:1013A000002807D1FFF77CF806480078401C054963
:1013B000087002E00020034908700020FFF7D2FF08
:1013C00010BD00006E00002010B5C046C046C046EB
:1013D000C04610BD10B500F003F8C046C04610BDB1
:1013E00010B500210C4800F026F8002808D0002194
:1013F000094800F015F8084800F029F80749087076
:101400000121054800F017F8002803D00121024807
:1014100000F006F810BD0000000100406F00002041
:1014200070B504460D460022294620461430FFF7C9
:10143000ACFB002070BD70B504460D460026294661
:1014400020461030FFF7E0F80646304670BD0146F2
:101450000868C0B2704710B5C046C04610BD10B590
:10146000C046C046C046C04610BD10B5C046C046C6
:1014700010BD000002480349886003488860704737
:101480005A5A000000200040A5A5000030B4744660
:10149000641E2578641CAB4204D3635D5B00E318D3
:1014A00030BC18471D46F8E710B5002819DB1A4A6A
:1014B00003231B02D21883089B00D2588307DC0E3B
:1014C000FF23A3409A438B071B0E8407E40EA3401F
:1014D0001A43114B032424021B198408A4001A5137
:1014E00018E00E4A03071B0F083B9B089B00D258CD
:1014F0008307DC0EFF23A3409A438B071B0E840750
:10150000E40EA3401A43054B0407240F083CA4082B
:10151000A4001A5110BD000000E100E01CED00E045
:1015200010B5002819DB1A4A03231B02D2188308BE
:101530009B00D2588307DC0EFF23A3409A438B07FE
:101540001B0E8407E40EA3401A43114B032424020C
:101550001B198408A4001A5118E00E4A03071B0F38
:10156000083B9B089B00D2588307DC0EFF23A34057
:101570009A438B071B0E8407E40EA3401A43054BC6
:101580000407240F083CA408A4001A5110BD000051
:1015900000E100E01CED00E010B50A46014600291C
:1015A00000D110BD02E000230B70491C1346521EEF
:1015B000002BF8D100BFF4E70EB50A216846FFF70B
:1015C000EBFF01210220FFF791FB01210920FFF72A
:1015D00099FD00216846C17081700321417000218E
:1015E00001714171012181711F21C9430181694646
:1015F0000948FFF748F90848FFF720F90121064894
:10160000FFF72FF9012203211120FEF799FF012195
:101610000148FFF71CF90EBD000F00401CB511205A
:10162000FFF7BEFD01210220FFF760FB0220FFF75C
:10163000EBFD01211F20FFF765FD0220FEF7CAFF29
:101640000420FFF787FD00216846017104214171E4
:10165000032181710C21C17101A8FFF7B7FC04219E
:1016600068460170002141708170FFF709FBFFF7A8
:10167000CBFB1A490860FFF705FE01210220FFF7A6
:1016800035FB7D21C90015480068FEF7EFFD0446D3
:10169000601E1349884200D90CE0601E1149486160
:1016A0000321081FFFF700FF00200E498861072073
:1016B000086100BF0020C043002809DB00BF00BF55
:1016C000C206D20E01219140074A116000BF00BF3F
:1016D00000BF00F013F800BFFEE700000400002088
:1016E000FFFFFF0000E000E000E100E010B500F0C7
:1016F0006FFC012801D0FFF7B1FA10BD1CB50648F8
:101700000321002380220091019004A1064800F0EB
:1017100031FC00F095FB1CBD000000205461736B90
:101720005F5465737400000009130000F8B50546A6
:101730000E461748076817480068001D00F092FA27
:10174000681C002808D1002E06D012480168091D27
:10175000114800F0C6FA1AE07C190E48006844608F
:10176000BC4207D20B480168091D0C48006800F014
:101770009DFA0CE007480168091D0948006800F05F
:1017800095FA08480068844201D206480460F8BD12
:101790001C00002008000020500100201000002044
:1017A0000C0000203800002010B5044600F0A6FA16
:1017B00020480068401C1F4908601F480068002836
:1017C00008D11D4804600846006801280ED100F0C9
:1017D00017F90BE019480068002807D1164800687F
:1017E000C06AE16A884201D813480460144800685E
:1017F000401C134908601349E06A0968884202D90D
:101800001049E06A08601422E16A51430E4A8818C0
:10181000211D00F066FA00F07FFA084800680028F1
:1018200007D005480068C06AE16A884201D200F02A
:10183000D9FA10BD18000020080000202400002064
:1018400034000020200000207400002070B525E046
:1018500000F02CFB14480068002801D1012000E0B2
:101860000020054600F064FC002D17D100F046FA78
:101870000D48C068C468201D00F0F4F90B480068EA
:10188000401E0A4908600A480068401E084908606E
:1018900000F042FA204600F00DF800BF044800684E
:1018A0000028D5D170BD00003C01002018000020A8
:1018B0001400002010B50446206B00F041FA2046C9
:1018C00000F03EFA10BD000030B503239B0217481C
:1018D0004407640F002C05D0C01DC008C000134C85
:1018E000041B1B1B0246124C22600024104D6C602E
:1018F000D0180838C008C0000E4C206000240D4DE0
:101900002D686C600B4D2D682C601146441A4C609C
:10191000084C24680C60084D4C682C60074D4C68DE
:101920002C600124E407064D2C6030BD64010020CA
:10193000440000204C0000205400002050000020F3
:101940005800002000BFFFF781FF0348006801280E
:10195000F9D900F047FAF6E774000020FFB581B02E
:101960000F460A9E0C9C216B0398401E80000818AD
:1019700000900098C008C000009000984007400FF9
:10198000002801D1012000E00020002802D172B619
:1019900000BFFEE7002508E0795D20463430415560
:1019A000785D002800D102E06D1C102DF4D300BF3B
:1019B000002143200155072E00D30626E662666407
:1019C0000020A064201D00F06EF92046183000F0C1
:1019D0006AF924610720801BA06164620020E06432
:1019E000002150200155049A0199009800F02AF92D
:1019F00020600B98002801D00B98046005B0F0BD62
:101A000010B5002406E0142161430E4A881800F046
:101A10003DF9641C072CF6D30B4800F037F90B484E
:101A200000F034F90A4800F031F90A4800F02EF9C4
:101A3000094800F02BF904480849086003480849A0
:101A4000086010BD74000020000100201401002077
:101A5000280100203C010020500100200C00002043
:101A60001000002010B50146164800E00068036829
:101A70008B42FBD3024643689B188B4204D14368D8
:101A80004C681B19436001460A464B689B18046862
:101A9000A34211D10C4C03682468A34208D04B68C0
:101AA000046864681B194B6003681B680B6005E0E1
:101AB000054B1B680B6001E003680B60884200D097
:101AC000016010BD440000204C0000200B49096853
:101AD0000968002901D1012100E00021002904D07A
:101AE0000021C943064A116006E004490968C96833
:101AF000C868034A41681160704700000C0000206C
:101B00003800002007480068401C002801D101204F
:101B100000E00020002802D172B600BFFEE772B6D6
:101B200000BFFEE760000020F8B5044600200090EA
:101B300000F0BCF93E480068002801D1FFF7C4FE60
:101B40003C4800682040002861D1002C15D00834A2
:101B50006007400F002810D06007400F0821081AC6
:101B600004196007400F002801D1012000E0002087
:101B7000002802D172B600BFFEE7002C47D02E48E5
:101B80000068844243D82D4E3046056801E02E4659
:101B90002D686868A04202D228680028F7D124483E
:101BA0000068854233D03068083000902868306083
:101BB0006868001B102813D92F197807400F0028D8
:101BC00001D1012000E00020002802D172B600BF40
:101BD000FEE76868001B78606C603846FFF742FFDC
:101BE000154968680968081A1349086008460068BA
:101BF00013490968884203D20F48006810490860F9
:101C00000C4968680968084368600020286000F093
:101C10008FFA00984007400F002801D1012000E012
:101C20000020002802D172B600BFFEE70098F8BD80
:101C30004C000020580000205000002044000020EC
:101C400054000020001F01231B060360001F0160D9
:101C5000001F034B036014380260203870470000F7
:101C6000051B000001460A694B68886898608B680C
:101C7000486858605068884201D1886850600020E8
:101C800008611068401E10601068704701460831F6
:101C900041600021C943816001460831C160016192
:101CA00000210160704700210161704710B50246B4
:101CB0000B685C1C002C01D1106907E0104608304D
:101CC00000E04068446824689C42FAD944684C604B
:101CD0004C68A160886041600A611468641C1460EB
:101CE00010BD42684A6093688B6093685960916048
:101CF000086103685B1C03607047000072B605480A
:101D00000068401C03490860BFF34F8FBFF36F8F1B
:101D1000704700006000002008480068002802D1D9
:101D200072B600BFFEE705480068401E0349086020
:101D300008460068002800D162B6704760000020A5
:101D400070B506463546002E35D0083D2C461A495A
:101D5000606809680840002801D0012000E00020E8
:101D6000002802D172B600BFFEE72068002801D12A
:101D7000012000E00020002802D172B600BFFEE77B
:101D80000D49606809680840002814D020680028C0
:101D900011D10949606809688843606000F086F8DD
:101DA0000649606809684018044908602046FFF742
:101DB00059FE00F0BDF970BD580000205000002011
:101DC00010B57D21C90005480068FEF74FFA401E96
:101DD000034948610720086110BD00006800002029
:101DE00000E000E00120000703494860BFF34F8F87
:101DF000BFF36F8F7047000000ED00E070B5044640
:101E00000025002C14D00D480068002801D10120C5
:101E100000E00020002802D172B600BFFEE700F00B
:101E200045F800212046FFF781FC00F081F90546C6
:101E3000002D01D1FFF7D6FF70BD0000400000204B
:101E40001CB5134800210B4680220091019011A17E
:101E5000124800F08FF80446012C0DD172B6002014
:101E6000C0430F49086001200E49086000200E4958
:101E7000086000F063F80AE0601C002801D001202F
:101E800000E00020002802D172B600BFFEE71CBDB2
:101E90003C00002049444C4500000000451900006A
:101EA00038000020240000201C00002002480068A8
:101EB000401C014908607047400000201A48006833
:101EC000002803D00120194908602CE000201749A0
:101ED00008601748016805E0002902D172B600BF0A
:101EE000FEE7491E14204843124A1058002801D129
:101EF000012000E000200028EED114224A430D4BBF
:101F0000D0184268526842600246083243689342E1
:101F100002D14268526842604268D268064B1A6039
:101F20000348016000BF7047400000202C000020E3
:101F300020000020740000200800002010B50B488D
:101F4000006AFF2109040843084908620846006A3C
:101F5000FF210906084305490862FFF731FF002009
:101F600003490860FEF7FEF8002010BD00ED00E018
:101F700060000020FFB585B01746B800FFF7D4FD1C
:101F80000646002E0BD05420FFF7CEFD0446002C51
:101F900001D0266304E03046FFF7D2FE00E00024C3
:101FA000002C10D000220F990E986B4613C3039299
:101FB0003A46089B06990598FFF7D0FC2046FFF7A4
:101FC000F3FB012501E00025ED43284609B0F0BDF3
:101FD00006490968002901D1012006E00449096881
:101FE000002901D1022000E00020704724000020D9
:101FF00040000020F8B5002000904248006800280A
:1020000072D141480068451C3F480560002D1CD135
:102010003E4800680068002801D1012000E000204F
:10202000002802D172B600BFFEE73848076838487A
:102030000068364908603648076036480068401C2A
:1020400034490860FFF742FD00BF3348006885420D
:102050003DD300BF2D4800680068002801D1012051
:1020600000E00020002804D00020C0432A49086076
:102070002CE026480068C068C4686668B54202D291
:102080002548066022E0201DFFF7ECFDA06A00282D
:1020900003D020461830FFF7E5FD2049E06A0968C3
:1020A000884202D91D49E06A08601422E16A51435E
:1020B0001B4A8818211DFFF714FE1A49E06A0968B7
:1020C000C96A8842C6D301200090C3E700BF154803
:1020D0000068C06A1421484311490858012801D9F1
:1020E0000120009005E0FFE70F480068401C0E4902
:1020F00008600E480068002801D001200090009878
:10210000F8BD0000400000201C0000200C00002052
:1021100010000020300000203800002020000020A7
:102120007400002008000020280000202C0000205F
:1021300070B50024002632480068002802D172B62B
:1021400000BFFEE7FFF7DAFD2D480068401E2C496E
:1021500008600846006800284DD12A480068002819
:1021600049D022E02848C068C46820461830FFF7EC
:1021700079FD201DFFF776FD2449E06A0968884251
:1021800002D92249E06A08601422E16A5143204AD8
:102190008818211DFFF7A5FD1E49E06A0968C96A74
:1021A000884202D301201C490860174800680028B3
:1021B00001D1012000E000200028D3D0002C01D064
:1021C000FFF784FC15480568002D0DD000BFFFF710
:1021D00011FF002802D001200F4908606D1E002D5C
:1021E000F5D100200D4908600B480068002802D096
:1021F0000126FFF7F7FDFFF78FFD304670BD0000A9
:1022000040000020180000202801002020000020AD
:1022100074000020080000202C000020280000206E
:1022200000093D0000127A000024F40040865101AC
:1022300000366E01008000963443101001344310C4
:102240001001000064220000000000207400000063
:1022500004010000D8220000740000205411000086
:10226000200100000000000000000000000000004D
:10227000000000000000000000000000000000005E
:10228000000000000000000000000000000000004E
:10229000000000000000000000000000000000003E
:1022A000000000000000000000000000000000002E
:1022B000000000000000000000000000000000001E
:1022C00000000000AAAAAAAA0000000000093D0020
:0822D000000000000000000006
:04000005000000C136
:00000001FF
